:020000040800F2
:1000000008050020D50000080D1A00089516000804
:1000100000000000000000000000000000000000E0
:10002000000000000000000000000000571A000857
:100030000000000000000000551A0008591A0008CE
:10004000E7000008E7000008E7000008E7000008F4
:10005000E7000008E7000008E7000008E7000008E4
:10006000E7000008E7000008E7000008E7000008D4
:10007000E7000008E7000008E7000008E7000008C4
:10008000E7000008E7000008E7000008E7000008B4
:10009000E7000008E7000008E7000008E7000008A4
:1000A000E7000008E7000008E7000008E700000894
:1000B000E7000008E7000008E7000008E700000884
:1000C0000348854600F0BEFA00480047A129000811
:1000D000080500200448804704480047FEE7FEE783
:1000E000FEE7FEE7FEE7FEE7B91A0008C1000008D8
:1000F00030B50B46014600202022012409E00D46C0
:10010000D5409D4205D31D469540491B2546954047
:1001100040191546521E002DF1DC30BD70B500248B
:100120002546002801DA01244042002901DA012590
:100130004942FFF7DDFFAC4200D04042002C00D026
:10014000494270BD10B5202A04DB0846203AD04051
:10015000002110BD0B46D340D0402024A21A91406C
:100160000843194610BDD2B201E00270401C491E7E
:10017000FBD270470022F6E710B513460A46044644
:100180001946FFF7F0FF204610BD421C0178401CC5
:100190000029FBD1801A7047C217C10F504010B51B
:1001A0004018CA079623002100F04DF810BDC20F79
:1001B000D207400040080BD0C10D0723DB01C9184E
:1001C00040020905400A1143C20840071143704725
:1001D000002001467047F0B51FB40646002082B0EB
:1001E00005464024019100901BE0019922460F46EC
:1001F0003046FFF7A7FF049A059B801A994110D358
:1002000010461946224600F02FFA361A8F41019700
:10021000224601200021009F00F026FA38184D41A7
:1002200000902046641E0028DFDC019B00982946D0
:10023000324607B0F0BD002904DA401C490001D164
:1002400040084000704770B40024050C05D110240C
:10025000000402D1002921D01124050E01D1000291
:100260000834050F01D10001241D850F01D1800044
:10027000A41C002801DB4000641C002908D02025B4
:100280002E1B0D46F540A14000D001212943084313
:1002900001061B1B000ADB1D02D5002070BC704745
:1002A000DB05181880180029F8DA401C4900F5D140
:1002B00070BC400840007047F0B5074608465840FB
:1002C00087B0C00F049048000E4659004008490806
:1002D000BC1A884105D2384631461E4617460B46A1
:1002E00002465800400810434CD0300D03904005A2
:1002F0005900400D490D0590401A0290402872DACD
:1003000018030121000B090508430190049800928D
:10031000002805D0019952420020884100920190A6
:10032000029840210A1A0199009800F09DF90546AB
:100330000C466B4607CB00F0A7F9C0197141039A30
:100340000E0D0023D71756401A467A40164344D064
:10035000049A002A2DD0029A012A039A15DC12056C
:10036000C01A914101263605001C7141D20F059E2D
:10037000D2070093019202962A46234600F0A4F980
:1003800007B0F0BD38463146FAE71605224A0F4657
:10039000B218C01AB74101210905001C4F410018CD
:1003A0007F41114618187941E20F10436D196441DD
:1003B00013E0E2076D0815436408C2071443039A6B
:1003C00001261205C01A91413605001C7141CE0765
:1003D000400830434908C01851412A46234600F0DE
:1003E00066F9CDE7FFE7049801224000C117121A11
:1003F00000238B4104983146C417381AA141EEE717
:1004000030B40124E407634030BC55E730B4012424
:10041000E407614030BC4FE70000E0FFF0B51FB4D7
:1004200088B00B990998002448400999C00F4900E9
:1004300049080991C0070B990090490049080B91A0
:1004400009990898A64608431CD00B990A980843B6
:1004500018D0099801244000420D4800410D099828
:1004600024050003000B204309900B980003000BA8
:1004700020430B9050181C4940180022019014464C
:10048000104605E0002001460DB0F0BD032801DA5A
:10049000034600E003239C46C11A0AAE0AE05F004F
:1004A00008ADED5B4F00F75B7D430027AA187C4148
:1004B000491C5B1E6145F2DD410004AB5A52210428
:1004C000120C0A43240C401C0828DFDB0198029020
:1004D0000099704601910090059B049A079906982F
:1004E00000F0F2F8D0E700000DFCFFFFF0B50C467D
:1004F0005C4085B0E40FE40703944C0000266408D8
:1005000059009446490802460296224321D0624689
:100510000A431ED06200570D4A000E032303550DF7
:10052000012402462C492405781B1B0B360B40186E
:1005300023432643614600901C46501AB44103D31E
:100540000098401C009002E0921800985B4100283F
:1005500003DA0020014605B0F0BD002001210905A5
:100560000746864611E064461D46141BB54106D376
:100570006546521BB341744607430C43A646CD075C
:1005800040084908284392185B4105460D43EAD1CB
:100590001046184313D06046194650407140084336
:1005A00006D06046101AB34106D20122002306E0AD
:1005B00000220123DB0702E00122D24353100098FE
:1005C00074460105381C6141029C039D0019694174
:1005D00000F06DF8BFE70000FD0300004A000903CA
:1005E0000123090B1B0519430A4B10B5520D9A4202
:1005F00002DA0020014610BD064B34339A4203DC78
:100600009A1AFFF79FFD10BD034BD21800F02CF88B
:1006100010BD0000FF030000CDFBFFFF10B5002957
:1006200004DB0124E40740428C412146002B04DB1B
:100630001C460123DB075242A341994200D190425C
:1006400010BD0000064C0125064E05E0E36807CC0E
:100650002B430C3C98471034B442F7D3FFF734FDDA
:100660003C2A00085C2A000810B5202A04DB014659
:10067000203A9140002010BD914020239C1A03464F
:10068000E3401943904010BD10B5202A06DBCB177C
:100690000846203A1041C1170B4306E00B461341B0
:1006A000D0402024A21A91400843194610BD10B52D
:1006B000002B08DA0024401C614192185B411A4368
:1006C00001D14008400010BDF0B51FB482B005460E
:1006D0000C0003D0084601F0B1FB02E001F0AEFBD4
:1006E00020300246009021462846FFF7BDFF049BBC
:1006F000059A04460F4618431143084314D0184680
:1007000010431BD0009840210A1A18460599FFF79C
:1007100019FD05460E46009A05990498FFF7A4FFB7
:10072000084305D0012004E02046394607B0F0BD5B
:100730000020C11705430E432C43374300990E9800
:100740006305401A7905E40A00220C43FD0A0A30C9
:1007500002D500200146E9E70105101969410C9C0A
:100760000D9D00196941FFF7A2FFDFE731B500F0E9
:10077000BDF8009C0546601C00D0641C00F0B6F873
:10078000401BA042FAD338BDF8B5002393E02246BF
:1007900001249C40A44622407ED04C68022C01D00B
:1007A000122C0CD1DC08A40027183C6A5D07ED0E62
:1007B0000F26AE40B4430E69AE4026433E62056844
:1007C0005E000324B4400F79A543BF07BF0FB740B5
:1007D0002F4307604D68012D05D0022D03D0112D48
:1007E00001D0122D0ED18568CF68A543B7402F43A5
:1007F000876047686546AF430D79ED06ED0F9D4074
:100800003D434560C568A5438C68B4402C43C46033
:100810004C68E4004ED52B4CA56901263543A561F3
:10082000A4699D0834400094274CAD002F19BC6882
:100830009D072E0F0F25B540AC430925ED06A842B4
:1008400001D1002514E0214DA84201D101250FE07E
:100850001F4DA84201D102250AE01E4DA84201D138
:10086000032505E01C4DA84201D1042500E0052523
:10087000B5402543BD60194C25684E689543F60385
:1008800000D51543256065684E689543B60300D5CD
:1008900015436560A56800E00CE04E689543F602DC
:1008A00000D51543A560E5684E689543B60200D5AE
:1008B0001543E5605B1C0A681446DA4000D066E721
:1008C000F8BD000000100240000001400004004894
:1008D00000080048000C00480010004800040140D7
:1008E000002A01D081617047816270470148006829
:1008F000704700000000002070B502464032537877
:10090000202B1CD11378012B19D001231370242420
:100910005470046825689D432560046825681E039B
:10092000B5432560046825680D43256000680168AB
:1009300019430160202050700020107070BD02200B
:1009400070BD70B5024640325378202B1BD113780E
:10095000012B18D0012414702423537003681D68E0
:10096000A5431D6005682B680F263602B3430902B4
:1009700019432960006801682143016020205070FC
:100980000020107070BD022070BD000070B5040022
:1009900006D02546403568780026002802D005E0BC
:1009A000012070BD2E70204600F0A0F92420687050
:1009B000206801684908490001600F216068090644
:1009C00088432168086121688A680120C003824346
:1009D0008A60E1680129A16808D0212292021143AE
:1009E00022689160E168022902D005E00143F7E73F
:1009F00001212268C902516021684A680F4B1A43DD
:100A00004A602168CA688243CA60616920690843F4
:100A1000A169090208432168C860216AE0690843A6
:100A20002168086020680168012211430160666442
:100A3000202068702663AE70002070BD0080000228
:100A4000FFB5054604464035687883B0202873D149
:100A50000C98002871D00D9800286ED028780128B5
:100A60006AD001202870FFF741FF0746012200905D
:100A70001923D103204600F0D5FE002876D122208C
:100A800068704020A870002666640C9860620D981B
:100A9000608566630E980090019704A90EC92046F0
:100AA00000F044FE002804D0606C2E70042860D052
:100AB0005CE0618D09208002FF2905D9FF22228593
:100AC00001231B06009006E0618D21850090208D9A
:100AD0000123C2B25B062046049900F091FE009704
:100AE0000022042120460E9B00F09CFE00283DD1F0
:100AF0002068416A606A421C62620170208D401E5B
:100B000081B22185608D401E6085002921D1608DD4
:100B100000281ED000970022802120460E9B00F066
:100B200081FE002822D1608DFF2807D9FF2222856F
:100B300001231B06009608E02AE01AE0608D20855C
:100B40000096208D0123C2B25B062046049900F076
:100B500057FE608D0028C2D13A4620460E9900F01B
:100B600085FE002807D0606C042802D0032007B05F
:100B7000F0BD0120FBE721682020C86121684A6898
:100B8000044B1A404A606870AE702E700020EEE789
:100B90000220ECE700E800FEFFB5054604464035BC
:100BA000687883B0202876D10C98002874D00D98EE
:100BB000002871D0287801286DD001202870FFF717
:100BC00095FE0746012200901923D103204600F02C
:100BD00029FE002853D1212068704020A8700026EB
:100BE00066640C9860620D98608566630E9800904C
:100BF000019704A90EC9204600F0CDFD002804D0BD
:100C0000606C2E7004286AD039E0608DFF2805D909
:100C1000FF22228501231B06009606E0608D2085B9
:100C20000096208D0123C2B25B062046049900F095
:100C3000E7FD3A4620460E9900F03FFE002803D01B
:100C4000606C04284BD01AE0606A411C6162216824
:100C500000788862608D401E6085208D401E0004F3
:100C6000000C208524D1608D002821D0009700221F
:100C7000802120460E9B00F0D5FD002802D00320E5
:100C800007B0F0BD608DFF2807D9FF222285012320
:100C90001B06009608E024E021E0608D2085009688
:100CA000208D0123C2B25B062046049900F0A8FD06
:100CB000608D0028BDD13A4620460E9900F0D6FD41
:100CC0000028BDD120682021C16120684268064B00
:100CD0001A4042606970AE702E700020D0E701208B
:100CE000CEE70220CCE7000000E800FE10B586B099
:100CF000044614216846FFF73DFA124920688842ED
:100D00001DD1114C61690120800401436161616959
:100D100001400591C0200090122001210190032084
:100D200002910491039069460848FFF72DFDE1699F
:100D3000012040050143E161E1690140059106B0F0
:100D400010BD0000005400400010024000040048A4
:100D500002480168491C0160704700000000002043
:100D600010B506480168102211430160002000F010
:100D700007F800F017F8002010BD00000020024026
:100D800010B5044600F060F97D21C900FFF7B0F905
:100D900000F0A0FB00222146501E00F017F80020B2
:100DA00010BD000008B50848816901221143816126
:100DB000816911400091C26901040A43C261C0699E
:100DC0000840009008BD00000010024010B500F07F
:100DD0001FFE10BDF8B504460068434DC00352D550
:100DE000E8690026C00007D4E96928040143E961E5
:100DF000E9690140012600913C480168C90510D409
:100E00000168821511430160FFF770FD074604E099
:100E1000FFF76CFDC01B642824D834480068C00567
:100E2000F6D5286A03273F02384020D06168394050
:100E300081421CD0286A2A6AB843012109040A4366
:100E40002A622A6A8A432A622862C0070FD0FFF703
:100E50004DFD009008E0FFF749FD0099411A244834
:100E6000814201D90320F8BD286A8007F3D5286A9A
:100E70006168B84308432862002E04D0E869012164
:100E800009078843E8612078C00705D0286BA1686E
:100E900080088000084328632078800706D5286BE7
:100EA000032109048843E168084328632078800609
:100EB00005D5286B102188432169084328632068E1
:100EC000800305D5286B80218843A16908432863E6
:100ED0002088400505D5286B402188436169084377
:100EE00028630020F8BD00000010024000700040A0
:100EF00088130000F8B505464E480E460068C00746
:100F0000C00FB0420AD24B4801684908490031433A
:100F100001600068C007C00FB04270D12878464C0D
:100F2000800705D56068F0218843A96808436060A0
:100F30002878C00753D06868012817D0022818D035
:100F4000032819D021688907002958DA61688908BF
:100F5000890001436160FFF7C9FC69680746012900
:100F600013D002291DD0032927D034E0216889033A
:100F7000EAE721688901E7E7616BC903E4E7FFF766
:100F8000B5FCC11B2D48814223D860680007800F43
:100F90000128F4D123E0FFF7A9FCC11B27488142B7
:100FA00017D860680007800F0228F4D117E0FFF718
:100FB0009DFCC11B214881420BD860680007800F4F
:100FC0000328F4D10BE0FFF791FCC11B1B488142C1
:100FD00001D90320F8BD60680007800FF3D11548E0
:100FE0000168C907C90FB1420BD901684908490016
:100FF000314301600068C007C00FB04201D001203A
:10100000F8BD2878400706D56068072109028843A3
:10101000E9680843606000F02DF86168084A090635
:10102000090F515CC840074908600020FFF7A8FE7F
:101030000020F8BD0020024000100240881300008C
:10104000242A0008040000200148006870470000BE
:10105000040000200448054900684968044A49051D
:10106000490F515CC8407047040000200010024046
:10107000342A000830B516A30FCB89B06C460FC4D4
:1010800017A30FCB0FC41A494A680C20144604401A
:101090001848042C05D0184B082C04D00C2C00D177
:1010A000184609B030BD9402240F6D462C5DC96A04
:1010B00004AD0907090FD203695C920F022A02D01E
:1010C000032A00D11846FFF713F86043E9E7000050
:1010D00002030405060708090A0B0C0D0E0F101079
:1010E0000102030405060708090A0B0C0D0E0F1078
:1010F0000010024000127A00006CDC02FEB50446CB
:101100000078F04EF04DC00748D068680007800FA7
:1011100001281FD068680007800F022804D1686882
:10112000C003800F022815D06168012919D0012061
:101130008004002901D0052917D02968B14329600E
:10114000296881432960606800281BD0FFF7CEFB27
:10115000074613E02868800320D56068002876D011
:101160001CE0286830432860EDE7296801432960C6
:10117000F7E7FFF7BBFBC01B642869D8286880032A
:10118000F7D50BE0FFF7B2FB074604E0FFF7AEFB35
:10119000C01B6428F1D828688003F7D42078800722
:1011A0003ED568680007800F14D068680007800F7C
:1011B000022804D16868C003800F01280AD0E068C3
:1011C000002828681DD0012108432860FFF78EFB06
:1011D00007460BE0286880070BD5E068012836D168
:1011E00007E0FFF783FBC01B0228C6D828688007EA
:1011F000F7D52868F82188432169C9000843286089
:101200000EE0400840002860FFF770FB074604E04E
:10121000FFF76CFBC01B0228AFD828688007F7D403
:101220002078000724D5E0690028686A11D00121E0
:1012300008436862FFF75AFB074604E0FFF756FBD6
:10124000C01B022899D8686A8007F7D510E036E1FC
:10125000D1E0400840006862FFF748FB074604E021
:10126000FFF744FBC01B022887D8686A8007F7D4C1
:10127000207804274007002861DA00200190E869FF
:10128000C00008D4E969B8060143E961E969014091
:101290000120009101908D480168C90511D40168B1
:1012A000821511430160FFF721FB009005E0FFF775
:1012B0001DFB0099401A642897D884480068C0052F
:1012C000F5D5A06801280AD0002801D0052811D042
:1012D000286A400840002862286AB84302E0286A69
:1012E000012108432862A068002812D0FFF7FEFA07
:1012F00000900AE0286A38432862F0E7FFF7F6FA20
:101300000099411A7248814275D8286A8007F5D53C
:101310000DE0FFF7EBFA009006E0FFF7E7FA00991F
:10132000411A6B48814266D8286A8007F5D4019833
:10133000002804D0E969012000078143E961207891
:10134000C00635D5606901280CD0401D686B24D0DB
:1013500038436863686B400840006863FFF7C6FA6B
:10136000074622E0686B38436863686B01210843D5
:101370006863FFF7BBFA074604E0FFF7B7FAC01B44
:10138000022838D8686B8007F7D5686BF821884346
:10139000A169C900084368630AE0B8436863F4E7D9
:1013A000FFF7A4FAC01B022825D8686B8007F7D482
:1013B0002078800637D568680007800F032813D08F
:1013C00068680007800F022804D16868C003800F96
:1013D000032809D0206A0028686B16D03043686360
:1013E000FFF784FA06460CE0686BC0031BD5206A41
:1013F000012864D117E05BE0FFF778FA801B022830
:1014000056D8686BC003F7D50DE0B0436863FFF7AB
:101410006DFA064604E0FFF769FA801B022847D8F8
:10142000686BC003F7D4606A002846D06968090772
:10143000890F022943D0012636060228286805D0E4
:10144000B0432860FFF752FA044633E0B043286007
:10145000FFF74CFA074604E0FFF748FAC01B0228E2
:1014600026D828688001F7D4E86A216B00090001BA
:101470000843E862A16AE06A084369687B22D203F4
:10148000914308436860286830432860FFF72EFACC
:10149000044604E0FFF72AFA001B022808D828684F
:1014A0008001F7D509E0FFF721FA001B022801D9D6
:1014B0000320FEBD28688001F5D40020FEBD012078
:1014C000FEBD00000000010000100240007000405E
:1014D00088130000094910B5401E884201D9012037
:1014E00010BD074C60610321081F00F091FA002035
:1014F000A06107202061002010BD0000FFFFFF0059
:1015000000E000E070B5040005D025466035687A3B
:10151000002802D006E0012070BD0020287220467D
:1015200000F026F824206872206801684908490004
:101530000160204600F08EFB0128EDD0606A002893
:1015400002D0204600F0E6FA206841680922D20263
:1015500091434160206881682A229143816020681C
:101560000168012211430160204600F039FB70BD83
:1015700010B586B0044614216846FEF7FBFD1149FC
:10158000206888421CD11048C269012149040A43DD
:10159000C261C2690A40059242690A4342614069D8
:1015A000084005900C20009002200190002002903D
:1015B00003900120049009206946C006FFF7E4F873
:1015C00006B010BD0044004000100240FFB50646C2
:1015D00004466036707A83B00D46202858D1002D1D
:1015E0000CD00598002809D00120A1680003814291
:1015F00007D12069002804D1E80702D0012007B0F4
:10160000F0BD307A012843D0012030720020E0661E
:1016100021207072FFF76AF901902746403705983C
:1016200038820598788218E0788A401E7882069879
:101630000090002280212046019B00F0B9FB002889
:1016400018D10120A1680003814202D1206900283D
:1016500012D02168287808856D1C788A0028E3D18B
:1016600006980090002240212046019B00F0A0FB3C
:10167000002808D00320C2E728882168C005C00DD3
:101680000885AD1CE9E72020707200203072B6E7B3
:101690000220B4E7FEE701688A69D243920701D4C9
:1016A00000228A6200688169C943C90703D0816941
:1016B0000122114381617047F7B5044600680E4668
:1016C0008069C043C0062CD42027254640352068B9
:1016D0008069C04380060FD5701CF8D0002E05D05D
:1016E000FFF704F90299401AB042F0D96F70002058
:1016F000A87028700320FEBD21681020C8612068F2
:10170000C7612046FFF7C7FF20684168064A1140BD
:101710004160042060646F700020A8702870012070
:10172000FEBD0020FEBD000000E800FEF8B5044646
:101730000120164640031D46DAB20090079F0023A1
:10174000204600F05DF83A462046069900F0B5F8CC
:10175000002803D0606C04281BD018E02846F5B29E
:10176000012809D02168300A88623A462046069945
:1017700000F0A3F80028EDD12068856200970022D0
:1017800040212046069B00F04DF8002800D00320A1
:10179000F8BD0120F8BDF8B5044601201646400307
:1017A0001D46DAB2C3020090079F204600F028F8D9
:1017B0003A462046069900F080F8002803D0606C75
:1017C00004281BD018E02846F5B2012809D021686A
:1017D000300A88623A462046069900F06EF80028E2
:1017E000EDD1206885620097002280212046069B6B
:1017F00000F018F8002800D00320F8BD0120F8BD43
:1018000070B50568049C68688905890D1204044E4A
:1018100011431943304021430143696070BD00000A
:10182000009800FCF8B51C4617460E46054611E028
:10183000601C0FD0002C05D0FFF758F80699401A0D
:10184000A04207D92020403568700020A870287079
:101850000320F8BD286881693046884304D0002001
:10186000B842E5D00020F8BD0120F9E770B5164672
:101870000D4604461AE0324629462046FFF71CFF73
:10188000002801D0012070BD002D04D0FFF72EF8F4
:10189000801BA8420AD9616C202001436164403456
:1018A00060700020A0702070032070BD20688069E7
:1018B000C0438006DFD4002070BD70B516460D46CB
:1018C00004461CE0324629462046FFF7F5FE002874
:1018D00001D0012070BD681C11D0002D04D0FFF78D
:1018E00005F8801BA8420AD9616C2020014361647D
:1018F000403460700020A0702070032070BD20680C
:101900008069C0438007DDD4002070BD30B587B04A
:1019100014216846FEF72EFC1D4842690121C904C6
:101920000A43426142690A4005924269C9000A437A
:10193000426142690A400592426949110A43426183
:1019400042690A400592426949000A43426140697E
:1019500009250840ED060590002220212846FEF7C3
:10196000BFFF0120400300900A480024019069460F
:1019700002940948FEF708FF202000900120019002
:101980000294694603942846FEF7FEFE07B030BD78
:1019900000100240000021100008004810B50D485A
:1019A0000B4901600C494160002181600161416186
:1019B00081610122C161C2600162FEF7E7FF00217F
:1019C0000448FEF799FF00210248FEF7BAFF10BD58
:1019D000005400404C0000200E09002010B50A48B9
:1019E000084901604B214902416000218160C160CA
:1019F00001618161C1610C22016242614162FFF7B4
:101A000081FD10BD00440040980000207047000098
:101A10008307FF22DB0E9A408907090E99400028B0
:101A20000BDA0007000F0838830808489B001818D5
:101A3000C36993430B43C3617047830804489B0009
:101A40001B181868904308431860704700ED00E0C9
:101A500000E400E07047704710B5FFF779F910BD5A
:101A600030B599B034216846FEF784FB0024149405
:101A7000159416941C210DA81794FEF77BFB0120EA
:101A80000390089010200994222504900095684640
:101A9000FFF734FB072014900320159016940121C2
:101AA000179414A8FFF726FA10940DA80D95119419
:101AB000FFF790F919B030BD1248016801221143B7
:101AC00001604168104A1140416001680F4A1140AD
:101AD00001600168012292049143016041683F2244
:101AE000120491434160C16A09090901C162016B95
:101AF000074A11400163416B4908490041630021D5
:101B000081607047001002400CB8FF08FFFFF6FE2E
:101B10002CFEFCFF10B5818CC90707D001684A680C
:101B200001235B049A43836A1A434A60818C8907C4
:101B300007D501684A6801231B049A43C36A1A4304
:101B40004A60818C490707D501684A6801239B04D4
:101B50009A43036B1A434A60818C090707D50168D1
:101B60004A680123DB039A43436B1A434A60818C22
:101B7000C90607D50268916801231B039943836B4B
:101B800019439160818C890607D501688A68012311
:101B90005B039A43C36B1A438A60818C490612D552
:101BA00003685A6801210905046C8A4322435A607C
:101BB000026C8A4207D10268516803235B0599438E
:101BC000436C19435160818C090607D501684A6846
:101BD0000123DB04806C9A4302434A6010BD00007D
:101BE000F8B500260446C666FEF780FE054616498F
:101BF0002068884202D0154988421DD10068144FE0
:101C0000000709D501212B460022490520460097EF
:101C100000F0CEF800280DD12068006840070BD5F1
:101C200001212B46002289052046009700F0C0F8CC
:101C3000002801D00320F8BD202060346072A0721B
:101C400026720020F8BD000000380140004400402A
:101C5000FFFFFF01F8B504462369A268E5691A434E
:101C6000636910202B43002125681A432B680E4618
:101C7000474F3B4013432B6023685A6803252D03CD
:101C8000AA43E5682A435A60236AA26925681A4371
:101C9000AB680B273F02BB431343AB603D4F256846
:101CA0003D4B0203BD420AD11B6B9B079B0F20D00B
:101CB000012B14D0022B14D0032B1BD10DE0374F76
:101CC000BD4210D11B6B03273F043B4011D09B1A30
:101CD00005D09B1A05D093420CD102200AE00420C3
:101CE00008E0082006E02E4B9D4202D02D4B9D427D
:101CF00000D100200123E769DB039F4222D10028A5
:101D00000CD002280DD0042813D0082817D00126A3
:101D10000A0912010807400F10432EE0FFF79AF955
:101D200009E06168204A48088018FEF7E1F981B2AD
:101D3000EEE7FFF79FF9616840004A08F4E7616841
:101D40004808F1E7002808D0022809D004280CD060
:101D5000082815D001263046F8BDFFF77BF906E0CC
:101D60006168124A480880180DE0FFF783F961683E
:101D70004A088018FEF7BCF980B22168C860EAE71B
:101D800061684808C018FEF7B3F980B2E860E2E77E
:101D9000F369FFEF003801400010024000440040AA
:101DA00000480040004C00400024F40000127A007B
:101DB000FFB581B017460E4604460A9D1DE0681C1B
:101DC0001BD0002D05D0FEF791FD0499401AA842C2
:101DD00013D920680168FF22A13291430160206875
:101DE0008168490849008160202060346072A072D7
:101DF00000202072032005B0F0BD2068C169304684
:101E0000884304D00020B842D9D00020F3E7012055
:101E1000F9E700000FB410B504A9074B02AA039814
:101E200000F0ECF8044602A9002000F083FC2046F4
:101E300010BC08BC04B01847352700082021020C4C
:101E400001D010211046020A01D0104608390209BB
:101E500001D01046091F820801D01046891E420891
:101E600001D0881E7047081A704702E008C8121F88
:101E700008C1002AFAD170477047002001E001C173
:101E8000121F002AFBD17047F0B51FB486B0099825
:101E9000089A030D0021024314D05148514A1818E2
:101EA000504305141198012810981AD0281A401C84
:101EB00000264D4F4D49009601910490002812DAFA
:101EC000444211E01198012449A3012801D110983E
:101ED000C1430698119A84600360C26041600BB0F0
:101EE000F0BD4042E4E70446210500203F4A001CC3
:101EF00051410391029012E0E00707D032463B4681
:101F000001990098FEF78AFA0191009032463B460B
:101F100010461946FEF782FA06460F466410002C5A
:101F2000EAD10498039B0028029A0999089806DAD6
:101F3000FEF774FA019B009AFEF770FA05E0FEF7CF
:101F4000D5FA019B009AFEF7D1FA04460E4600220C
:101F5000284BFEF763FB03D80020C043014607E08F
:101F60000022254B20463146FEF7A6F9FEF736FB48
:101F7000102409E0002C0ADB0A220023FEF72BF9CB
:101F8000079B30321A55641E02460A43F2D11122D1
:101F9000641C079B121B1C19119B012B03D00123EE
:101FA00008430ED10AE0084304D01120109000200D
:101FB000119077E71098151A6D1E0BE01098824269
:101FC00002DD00236D1C03E0824201DA00236D1E56
:101FD000002BEED0069811998260C16030C07EE778
:101FE00001FCFFFF104D0000000014400000F03F16
:101FF000300000000000F0430000E03FFFB597B064
:102000000646002518E2252877D100242746FD49F9
:10201000049400E00443761C32780120203A90407A
:102020000842F7D130782A280ED0022230780146B3
:102030003039092916D804990A23594330394018F0
:102040001443761C0490F1E7189802C80491189084
:10205000002904DA0120400304434842049002208E
:102060000443761C30782E2814D104200443707861
:10207000761C2A2809D11898761C80C8189009E087
:102080000A214F43303FC719761C3078014630395A
:102090000929F5D930786C2810D006DC4C281AD0E4
:1020A00068280ED06A2817D104E0742813D07A2843
:1020B00012D110E00120400504430CE00121090584
:1020C00001E0032109050C437178814203D101200D
:1020D00000052418761C761C3078119066280BD0E9
:1020E00013DC58287DD009DC00287BD04528F6D0A9
:1020F0004628F4D047281AD1A5E118E0632835D046
:10210000642870D0652812D19DE170286CD008DC5D
:102110006728F1D069287BD06E280DD06F2806D1B2
:10212000BAE073282ED0752871D0782859D01A9A21
:10213000199990476D1C7EE16002400F022809D07A
:1021400003280DD00428189801680DD00D60001DDB
:10215000189070E11898EA1701680D604A60F6E778
:10216000189801680D80F2E70D70F0E718986A463C
:1021700001781172001D18900020507202A8009082
:10218000012005E0189802C8189000200091C04373
:1021900061070DD5002101E00199491C0191B94267
:1021A00012DA8142F8DB009A515C0029F4D10BE08D
:1021B000002101E00199491C01918142FADB019A59
:1021C0000099895C0029F5D1019904981A9B471A56
:1021D00021463846199A00F097FA01994019451896
:1021E0000BE04FE02CE113E04EE0009800990078FE
:1021F000491C00911A9A199990470198401E019024
:10220000401CF2D1214638461A9B199A10E137E05A
:102210000A200021009001916002410F022907D09D
:10222000189A01CA1892C2179446032908D00AE0E6
:102230001898C01DC108C90005C91891944607E047
:1022400000B2C2179446042902D140B2C1178C468D
:1022500000226146944506DA0A4600214042914137
:102260008C462D2102E0210504D52B216A461173ED
:10227000012103E0E10701D02021F7E7029155E0B9
:102280000A200AE0102008E010200090002104201D
:1022900004430191082703E00820002101910090E8
:1022A0006002410F022907D0189A01CA1892002231
:1022B0009446032908D008E01898C01DC108C90039
:1022C00005C91891944603E080B2042900D1C0B238
:1022D00000210291210729D51199702906D0009A71
:1022E0001021019B4A401A4305D00EE040216A4666
:1022F0001173012108E06146014306D030216A468E
:1023000011731199517302210291009A0821019BC6
:102310004A401A430AD16146014301D1610705D5FC
:1023200030216A46117301217F1E029111995829AB
:1023300004D035A10E910DA90D910DE037A1F9E75B
:102340006146019B009AFDF746FF0E9B8C469B5C05
:102350000D9A521E0D92137061460143F0D10D98F3
:1023600005A9081A20300190600703D50120000458
:10237000844300E001270198874201DD381A00E01C
:102380000020019900904118029809180498401AF9
:102390000490E00306D421461A9B199A049800F091
:1023A000B3F94519002706E003A81A9AC05D1999E8
:1023B00090476D1C7F1C02988742F5DBE0030CD52B
:1023C00021461A9B199A049800F09EF9451904E0D9
:1023D0001A9A3020199990476D1C0099481E009058
:1023E0000029F5DC08E00D980D990078491C0D9145
:1023F0001A9A199990476D1C0199481E019000295D
:10240000F1DC63E1092801003031323334353637ED
:102410003839616263646566000000003031323330
:1024200034353637383941424344454600000000D0
:1024300000F05AF94519761C3078002800D0E2E502
:1024400028461BB0F0BD600700D406271898C01DB1
:10245000C108C90048680A680831C30FDB07189132
:10246000190001D09CA108E0210501D59BA104E041
:10247000E10701D09AA100E09AA1430011985B08FE
:10248000109165280CD006DC452809D046281DD0BF
:10249000472841D141E0662818D067283CD13CE06C
:1024A0000021112F01DB112000E0781C0191009028
:1024B00008A911A8FFF7E8FC139905910021119ACA
:1024C00015927F1C12980197009150E00120C007DF
:1024D00003900120019008A9009711A8FFF7D4FCF0
:1024E000139A149905920022119B00921298159349
:1024F000059A0192002901D0104602E0791C40188B
:102500000190381A01D5019804E04042401E009025
:10251000781C0190C01B029043E0012F00DA0127D4
:102520000021112F01DD112000E0384601910090BB
:1025300008A911A8FFF7A8FC13990591119A002189
:10254000129815920091019721070CD40599B94270
:1025500001DB019900E00191012904DD159A491E72
:10256000515C302906D0B84201DA011D05DA01219B
:10257000029115E00199491EEDE7002805DC00995C
:10258000411800910199091A03E0019A411C9142F6
:1025900000DD01910099401A401C02900120C00703
:1025A0000390200706D402990198814202DB0020A3
:1025B000C043029000206946C87707AF0121039805
:1025C0000337C907884224D0022011902B20129093
:1025D000039800280CDA404203902D20129007E067
:1025E0000A210398FDF784FD30317F1E0390397076
:1025F0001199481E11900029F2DC03980028EFD1B0
:10260000791E129808703078202108404530BF1E8E
:10261000387006A8C01BC01D0390109800780028D1
:1026200000D00120019941180298C0170918039899
:1026300009180498401A401E0490E00306D421466D
:102640001A9B199A049800F05FF8451910980078C1
:10265000002803D01A9A199990476D1CE00324D5DD
:1026600021461A9B199A049800F04EF845191CE06F
:102670000098002807DB00990598884203DD15982B
:10268000405C199901E0199930201A9A90470098F6
:102690006D1C401C00900298401E0290002804D13E
:1026A0001A9A2E20199990476D1C0199481E019085
:1026B0000029DDDC05E038781A9A7F1C19999047CB
:1026C0006D1C0399481E03900029F4DC21461A9BD7
:1026D000199A0498ACE600002D0000002B000000C1
:1026E0002000000000000000F8B5044600251E464A
:1026F0001746880404D405E039462020B0476D1CF5
:10270000641EF9D52846F8BDFFB50446002581B002
:102710001E46C80301D5302700E02027880404D5D1
:1027200005E038460399B0476D1C641EF9D528466C
:1027300005B0F0BD0A68531C0B60107070470000B4
:10274000F0B589B08221684601730125322403AEB9
:102750002B462022BE214A48009601950294FEF79E
:102760001BFA01233222BF214548009601950294AD
:10277000FEF766F9771C01233322BF2140480097FA
:1027800001950294FEF75CF96846017B0591407B58
:102790000195069001233522BF2100960294384806
:1027A000FEF74EF96846017B0C200840820106982E
:1027B000890710188A0D0599C0085118C908009694
:1027C00001950591069001233C220294BF212C48DB
:1027D000FEF736F901233D22BF21294800970195D4
:1027E0000294FEF72DF96846407B012301026846FA
:1027F000007B3E22081801B20491009601950294D4
:10280000BF211F48FEF71CF901233F22BF211C48AE
:10281000009701950294FEF713F96846407B012367
:1028200001026846007B0294081802B207920096E3
:1028300001952A22BF211248FEF702F901232B221B
:10284000BF210F48009701950294FEF7F9F86846FA
:10285000407B01026846007B081802B20599069881
:10286000401A0499511A4843079A0499511AFDF7DE
:1028700055FC05994018FDF78FFC09B0F0BD00002C
:102880004C000020F0B589B0822168460173002118
:1028900041730125322403AF2B462022BE213F483D
:1028A000009701950294FEF777F901233022BF21AA
:1028B0003A48009701950294FEF7C2F87E1C012366
:1028C0003122BF213548009601950294FEF7B8F8F1
:1028D0006846007B0123410805916846407B0195CD
:1028E000400806903622BF21009702942B48FEF73D
:1028F000A7F801233722BF212848009601950294AA
:10290000FEF79EF86846407B012301026846007B83
:102910003A22081801B20491009701950294BF2150
:102920001E48FEF78DF801233B22BF211B4800966D
:1029300001950294FEF784F86846407B012301026A
:102940006846007B0294081802B20792009701952E
:102950002822BF211148FEF773F801232922BF2145
:102960000E48009601950294FEF76AF86846407B8F
:1029700001026846007B081802B205990698401AC1
:102980000499511A4843079A0499511AFDF7C6FB56
:1029900005994018FDF700FC09B0F0BD4C0000207F
:1029A0001CB5FEF7DDF9FFF75BF8FEF7AFFFFFF7A9
:1029B00015F8FEF7F3FF134C25460835FFF7C0FE68
:1029C0002060FFF75FFF6060FDF7F1FB06460F46F2
:1029D0002068FDF7ECFB02460B460BA12846019749
:1029E0000096FFF717FA2846FDF7CFFB82B205489D
:1029F0000A2329469030FEF7E9FDFF20F530FDF768
:102A0000B5FEDBE70800002054656D703A202532E2
:102A10002E3166203A20556D69643A2025322E31D8
:102A200066200A000000000000000000010203040C
:102A30000607080900000000010203045C2A0008E0
:102A400000000020080000006A1E0008642A000838
:102A500008000020000500007A1E000800000000A9
:042A600000127A00E6
:04000005080000C12E
:00000001FF
