:020000040800F2
:1000000078040020D5000008250C00086D0B0008BE
:1000100000000000000000000000000000000000E0
:100020000000000000000000000000006F0C00084D
:1000300000000000000000006D0C0008710C0008BA
:10004000E7000008E7000008E7000008E7000008F4
:10005000E7000008E7000008E7000008E7000008E4
:10006000E7000008E7000008E7000008E7000008D4
:10007000E7000008E7000008E7000008E7000008C4
:10008000E7000008E7000008E7000008E7000008B4
:10009000E7000008E7000008E7000008E7000008A4
:1000A000E7000008E7000008E7000008E700000894
:1000B000E7000008E7000008E7000008E700000884
:1000C0000348854600F03CF800480047451000080A
:1000D000780400200448804704480047FEE7FEE714
:1000E000FEE7FEE7FEE7FEE7CD0C0008C1000008D2
:1000F00030B50B46014600202022012409E00D46C0
:10010000D5409D4205D31D469540491B2546954047
:1001100040191546521E002DF1DC30BDD2B201E06F
:100120000270401C491EFBD270470022F6E710B552
:1001300013460A4604461946FFF7F0FF204610BD55
:10014000064C0125064E05E0E36807CC2B430C3C2A
:1001500098471034B442F7D3FFF7B6FF9C1000085D
:10016000BC10000831B500F0BDF8009C0546601CCD
:1001700000D0641C00F0B6F8401BA042FAD338BD92
:10018000F8B5002393E0224601249C40A446224077
:100190007ED04C68022C01D0122C0CD1DC08A400BB
:1001A00027183C6A5D07ED0E0F26AE40B4430E697A
:1001B000AE4026433E6205685E000324B4400F79DA
:1001C000A543BF07BF0FB7402F4307604D68012D00
:1001D00005D0022D03D0112D01D0122D0ED185682E
:1001E000CF68A543B7402F43876047686546AF4354
:1001F0000D79ED06ED0F9D403D434560C568A54373
:100200008C68B4402C43C4604C68E4004ED52B4C41
:10021000A56901263543A561A4699D083440009471
:10022000274CAD002F19BC689D072E0F0F25B54038
:10023000AC430925ED06A84201D1002514E0214D6B
:10024000A84201D101250FE01F4DA84201D102258E
:100250000AE01E4DA84201D1032505E01C4DA8422D
:1002600001D1042500E00525B5402543BD60194CAA
:1002700025684E689543F60300D5154325606568EB
:100280004E689543B60300D515436560A56800E048
:100290000CE04E689543F60200D51543A560E5686D
:1002A0004E689543B60200D51543E5605B1C0A68AD
:1002B0001446DA4000D066E7F8BD000000100240A6
:1002C000000001400004004800080048000C0048FD
:1002D0000010004800040140002A01D081617047ED
:1002E00081627047014800687047000000000020EC
:1002F00002480168491C01607047000000000020AE
:1003000010B506480168102211430160002000F07A
:1003100007F800F017F8002010BD00000020024090
:1003200010B5044600F060F97D21C900FFF7E0FE3A
:1003300000F0A0FB00222146501E00F017F800201C
:1003400010BD000008B50848816901221143816190
:10035000816911400091C26901040A43C261C06908
:100360000840009008BD00000010024010B500F0E9
:100370005BFC10BDF8B504460068434DC00352D580
:10038000E8690026C00007D4E96928040143E9614F
:10039000E9690140012600913C480168C90510D473
:1003A0000168821511430160FFF79CFF074604E0D6
:1003B000FFF798FFC01B642824D834480068C005A4
:1003C000F6D5286A03273F02384020D061683940BB
:1003D00081421CD0286A2A6AB843012109040A43D1
:1003E0002A622A6A8A432A622862C0070FD0FFF76E
:1003F00079FF009008E0FFF775FF0099411A244843
:10040000814201D90320F8BD286A8007F3D5286A04
:100410006168B84308432862002E04D0E8690121CE
:1004200009078843E8612078C00705D0286BA168D8
:1004300080088000084328632078800706D5286B51
:10044000032109048843E168084328632078800673
:1004500005D5286B1021884321690843286320684B
:10046000800305D5286B80218843A1690843286350
:100470002088400505D5286B4021884361690843E1
:1004800028630020F8BD000000100240007000400A
:1004900088130000F8B505464E480E460068C007B0
:1004A000C00FB0420AD24B480168490849003143A5
:1004B00001600068C007C00FB04270D12878464C78
:1004C000800705D56068F0218843A968084360600B
:1004D0002878C00753D06868012817D0022818D0A0
:1004E000032819D021688907002958DA616889082A
:1004F000890001436160FFF7F5FE6968074601293D
:1005000013D002291DD0032927D034E021688903A4
:10051000EAE721688901E7E7616BC903E4E7FFF7D0
:10052000E1FEC11B2D48814223D860680007800F7F
:100530000128F4D123E0FFF7D5FEC11B27488142F3
:1005400017D860680007800F0228F4D117E0FFF782
:10055000C9FEC11B214881420BD860680007800F8B
:100560000328F4D10BE0FFF7BDFEC11B1B488142FD
:1005700001D90320F8BD60680007800FF3D115484A
:100580000168C907C90FB1420BD901684908490080
:10059000314301600068C007C00FB04201D00120A4
:1005A000F8BD2878400706D560680721090288430E
:1005B000E9680843606000F02DF86168084A0906A0
:1005C000090F515CC840074908600020FFF7A8FEEA
:1005D0000020F8BD002002400010024088130000F7
:1005E00082100008040000200148006870470000E5
:1005F000040000200448054900684968044A490588
:10060000490F515CC84070470400002000100240B0
:100610009210000830B516A30FCB89B06C460FC4FA
:1006200017A30FCB0FC41A494A680C201446044084
:100630001848042C05D0184B082C04D00C2C00D1E1
:10064000184609B030BD9402240F6D462C5DC96A6E
:1006500004AD0907090FD203695C920F022A02D088
:10066000032A00D11846FFF743FD6043E9E7000085
:1006700002030405060708090A0B0C0D0E0F1010E3
:100680000102030405060708090A0B0C0D0E0F10E2
:100690000010024000127A00006CDC02FEB5044635
:1006A0000078F04EF04DC00748D068680007800F12
:1006B00001281FD068680007800F022804D16868ED
:1006C000C003800F022815D06168012919D00120CC
:1006D0008004002901D0052917D02968B143296079
:1006E000296881432960606800281BD0FFF7FAFD64
:1006F000074613E02868800320D56068002876D07C
:100700001CE0286830432860EDE729680143296030
:10071000F7E7FFF7E7FDC01B642869D82868800366
:10072000F7D50BE0FFF7DEFD074604E0FFF7DAFD43
:10073000C01B6428F1D828688003F7D4207880078C
:100740003ED568680007800F14D068680007800FE6
:10075000022804D16868C003800F01280AD0E0682D
:10076000002828681DD0012108432860FFF7BAFD42
:1007700007460BE0286880070BD5E068012836D1D2
:1007800007E0FFF7AFFDC01B0228C6D82868800726
:10079000F7D52868F82188432169C90008432860F3
:1007A0000EE0400840002860FFF79CFD074604E08B
:1007B000FFF798FDC01B0228AFD828688007F7D440
:1007C0002078000724D5E0690028686A11D001214B
:1007D00008436862FFF786FD074604E0FFF782FDE5
:1007E000C01B022899D8686A8007F7D510E036E167
:1007F000D1E0400840006862FFF774FD074604E05E
:10080000FFF770FDC01B022887D8686A8007F7D4FD
:10081000207804274007002861DA00200190E86969
:10082000C00008D4E969B8060143E961E9690140FB
:100830000120009101908D480168C90511D401681B
:10084000821511430160FFF74DFD009005E0FFF7B1
:1008500049FD0099401A642897D884480068C0056B
:10086000F5D5A06801280AD0002801D0052811D0AC
:10087000286A400840002862286AB84302E0286AD3
:10088000012108432862A068002812D0FFF72AFD42
:1008900000900AE0286A38432862F0E7FFF722FD5B
:1008A0000099411A7248814275D8286A8007F5D5A7
:1008B0000DE0FFF717FD009006E0FFF713FD00992C
:1008C000411A6B48814266D8286A8007F5D401989E
:1008D000002804D0E969012000078143E9612078FC
:1008E000C00635D5606901280CD0401D686B24D046
:1008F00038436863686B400840006863FFF7F2FCA8
:10090000074622E0686B38436863686B012108433F
:100910006863FFF7E7FC074604E0FFF7E3FCC01B52
:10092000022838D8686B8007F7D5686BF8218843B0
:10093000A169C900084368630AE0B8436863F4E743
:10094000FFF7D0FCC01B022825D8686B8007F7D4BE
:100950002078800637D568680007800F032813D0F9
:1009600068680007800F022804D16868C003800F00
:10097000032809D0206A0028686B16D030436863CA
:10098000FFF7B0FC06460CE0686BC0031BD5206A7D
:10099000012864D117E05BE0FFF7A4FC801B02286C
:1009A00056D8686BC003F7D50DE0B0436863FFF716
:1009B00099FC064604E0FFF795FC801B022847D807
:1009C000686BC003F7D4606A002846D069680907DD
:1009D000890F022943D0012636060228286805D04F
:1009E000B0432860FFF77EFC044633E0B043286044
:1009F000FFF778FC074604E0FFF774FCC01B0228F1
:100A000026D828688001F7D4E86A216B0009000124
:100A10000843E862A16AE06A084369687B22D2035E
:100A2000914308436860286830432860FFF75AFC08
:100A3000044604E0FFF756FC001B022808D828688B
:100A40008001F7D509E0FFF74DFC001B022801D912
:100A50000320FEBD28688001F5D40020FEBD0120E2
:100A6000FEBD0000000001000010024000700040C8
:100A700088130000094910B5401E884201D90120A1
:100A800010BD074C60610321081F00F0CDF8002065
:100A9000A06107202061002010BD0000FFFFFF00C3
:100AA00000E000E070B5040005D025466035687AA6
:100AB000002802D006E0012070BD002028722046E8
:100AC00000F026F82420687220680168490849006F
:100AD0000160204600F0C8F90128EDD0606A0028C6
:100AE00002D0204600F020F9206841680922D20295
:100AF00091434160206881682A2291438160206887
:100B00000168012211430160204600F073F970BDB5
:100B100010B586B0044614216846FFF706FB11495C
:100B2000206888421CD11048C269012149040A4347
:100B3000C261C2690A40059242690A434261406942
:100B4000084005900C2000900220019000200290A7
:100B500003900120049009206946C006FFF710FBAE
:100B600006B010BD0044004000100240FEE7000047
:100B700030B587B014216846FFF7D7FA1A484269A2
:100B80000121C9040A43426142690A40059242694F
:100B9000C9000A43426142690A400592426949110B
:100BA0000A434261406909250840ED06059000228C
:100BB00020212846FFF790FB0120400300900B48BE
:100BC00000240190694602940948FFF7D9FA2020D1
:100BD0000090012001900294694603942846FFF793
:100BE000CFFA07B030BD0000001002400000211015
:100BF0000008004810B50A48084901604B21490225
:100C0000416000218160C16001618161C1610C228C
:100C1000016242614162FFF745FF10BD00440040A0
:100C200008000020704700008307FF22DB0E9A4077
:100C30008907090E994000280BDA0007000F0838D1
:100C4000830808489B001818C36993430B43C3618A
:100C50007047830804489B001B181868904308439A
:100C60001860704700ED00E000E400E07047704756
:100C700010B5FFF73DFB10BD10B598B034216846A4
:100C8000FFF753FA00240D940E940F941C2111A821
:100C90001094FFF74AFA2020009001200890099450
:100CA0006846FFF7FBFC07200D9003200E900F9481
:100CB000012110940DA8FFF7EDFB02201190149470
:100CC00011A8FFF757FB18B010BD000012480168CB
:100CD0000122114301604168104A114041600168DE
:100CE0000F4A1140016001680122920491430160A2
:100CF00041683F22120491434160C16A0909090118
:100D0000C162016B074A11400163416B4908490008
:100D10004163002181607047001002400CB8FF0859
:100D2000FFFFF6FE2CFEFCFF10B5818CC90707D033
:100D300001684A6801235B049A43836A1A434A6044
:100D4000818C890707D501684A6801231B049A43EF
:100D5000C36A1A434A60818C490707D501684A680B
:100D600001239B049A43036B1A434A60818C090751
:100D700007D501684A680123DB039A43436B1A4392
:100D80004A60818CC90607D50268916801231B035C
:100D90009943836B19439160818C890607D501685B
:100DA0008A6801235B039A43C36B1A438A60818C70
:100DB000490612D503685A6801210905046C8A4363
:100DC00022435A60026C8A4207D1026851680323A9
:100DD0005B059943436C19435160818C090607D523
:100DE00001684A680123DB04806C9A4302434A602D
:100DF00010BD0000F8B500260446C666FFF772FA7B
:100E0000054616492068884202D0154988421DD1FE
:100E10000068144F000709D501212B46002249051F
:100E20002046009700F0CEF800280DD12068006819
:100E300040070BD501212B4600228905204600974B
:100E400000F0C0F8002801D00320F8BD2020603455
:100E50006072A07226720020F8BD000000380140C8
:100E600000440040FFFFFF01F8B504462369A26873
:100E7000E5691A43636910202B43002125681A4352
:100E80002B680E46474F3B4013432B6023685A683C
:100E900003252D03AA43E5682A435A60236AA26901
:100EA00025681A43AB680B273F02BB431343AB6073
:100EB0003D4F25683D4B0203BD420AD11B6B9B078A
:100EC0009B0F20D0012B14D0022B14D0032B1BD14D
:100ED0000DE0374FBD4210D11B6B03273F043B4051
:100EE00011D09B1A05D09B1A05D093420CD1022039
:100EF0000AE0042008E0082006E02E4B9D4202D0C4
:100F00002D4B9D4200D100200123E769DB039F4266
:100F100022D100280CD002280DD0042813D0082894
:100F200017D001260A0912010807400F10432EE0CE
:100F3000FFF760FB09E06168204A48088018FFF766
:100F4000D7F881B2EEE7FFF765FB616840004A0819
:100F5000F4E761684808F1E7002808D0022809D0C2
:100F600004280CD0082815D001263046F8BDFFF71C
:100F700041FB06E06168124A480880180DE0FFF75F
:100F800049FB61684A088018FFF7B2F880B221680F
:100F9000C860EAE761684808C018FFF7A9F880B29E
:100FA000E860E2E7F369FFEF00380140001002401B
:100FB0000044004000480040004C00400024F40081
:100FC00000127A00FFB581B017460E4604460A9D0E
:100FD0001DE0681C1BD0002D05D0FFF783F9049994
:100FE000401AA84213D920680168FF22A132914318
:100FF00001602068816849084900816020206034D0
:101000006072A07200202072032005B0F0BD20683D
:10101000C1693046884304D00020B842D9D00020AE
:10102000F3E70120F9E702E008C8121F08C1002A0F
:10103000FAD170477047002001E001C1121F002A59
:10104000FBD17047FFF75CF9FFF716FEFFF790FD45
:10105000FFF7D0FD20260924E4063504EB27BF0066
:10106000A6611420FFF77EF8A5611420FFF77AF837
:10107000A6611420FFF776F8A5613846FFF772F8ED
:10108000EEE7000000000000000001020304060774
:10109000080900000000010203040000BC10000861
:1010A000000000200800000026100008C4100008FE
:1010B0000800002070040000361000080000000046
:0410C00000127A00A0
:04000005080000C12E
:00000001FF
